:020000040800F2
:1000000000500020010D0008A50C0008AB0C0008F2
:10001000B10C0008B70C0008BD0C0008000000007F
:10002000000000000000000000000000C30C0008F9
:10003000CF0C000800000000DB0C0008E70C0008F3
:10004000490D0008490D0008490D0008490D000838
:10005000490D0008490D0008490D0008490D000828
:10006000490D0008490D0008490D0008490D000818
:10007000490D0008490D0008490D0008490D000808
:10008000490D0008490D0008490D0008490D0008F8
:10009000490D0008490D0008490D0008490D0008E8
:1000A000490D0008490D0008490D0008490D0008D8
:1000B000490D0008490D0008490D0008490D0008C8
:1000C000490D0008490D0008490D0008490D0008B8
:1000D000490D0008490D0008490D0008490D0008A8
:1000E000490D0008490D0008490D000800000000F6
:1000F0000000000000000000000000000000000000
:0C01000000000000000000005FF808F1A3
:10010C0010B5054C237833B9044B13B10448AFF345
:10011C0000800123237010BD64000020000000004B
:10012C007027000808B5034B1BB103490348AFF314
:10013C00008008BD00000000680000207027000847
:10014C0080B582B000AF0346FB71F91D012301227B
:10015C00034801F0A7FD00BF0837BD4680BD00BFB6
:10016C008C00002080B584B000AF03463A60FB7170
:10017C000B46BB7100221021124801F0E6F8FB7906
:10018C001846FFF7DDFFBB791846FFF7D9FF0023B0
:10019C00FB6008E00020FFF7D3FF0020FFF7D0FF43
:1001AC00FB680133FB603B68013BFA689A42F1DB68
:1001BC0001221021034801F0C8F800BF1037BD46DA
:1001CC0080BD00BF0008014080B584B000AF7860EE
:1001DC000123FB601BE0FA6800210920FFF7C2FF36
:1001EC00FA680F210A20FFF7BDFFFA6807210B20E0
:1001FC00FFF7B8FFFA6801210C20FFF7B3FFFA688C
:10020C0000210F20FFF7AEFFFB680133FB60FA689B
:10021C007B689A42DFDD00BF00BF1037BD4680BD52
:10022C00B0B592B000AF03460A46FB711346BB71E2
:10023C00584B07F10C041D460FCD0FC40FCD0FC446
:10024C0095E8030084E80300FB79092B00F2818018
:10025C00BB79042B1AD100237B6413E07B6CDBB2DB
:10026C000133D8B2FB799B0048333B4453F83C2C08
:10027C007B6C13441B7804221946FFF773FF7B6CCD
:10028C0001337B647B6C072BE8DD7EE0BB79032BB1
:10029C001CD100233B6415E03B6CDBB20133D8B2BC
:1002AC00FB799B0048333B4453F83C2C3B6C134488
:1002BC001B789B00DBB203221946FFF753FF3B6C04
:1002CC0001333B643B6C072BE6DD5EE0BB79022B14
:1002DC0024D10023FB631DE0FB6BDBB20133D8B2EE
:1002EC002D4AFB6B13441B789B015AB2FB799B0084
:1002FC0048333B4453F83C1CFB6B0B441B785BB200
:10030C0013435BB2DBB202221946FFF72BFFFB6BE8
:10031C000133FB63FB6B072BDEDD36E0BB79012B76
:10032C0033D10023BB6310E0BB6BDBB20133D8B21B
:10033C001A4ABB6B13441B789B00DBB20122194693
:10034C00FFF710FFBB6B0133BB63BB6B072BEBDD04
:10035C001BE000237B6315E07B6BDBB20133D8B26F
:10036C000E4A7B6B13441B781A46BB7902FA03F3D3
:10037C00D9B2BB79C3F103031A46FFF7F3FE7B6BCB
:10038C0001337B637B6B072BE6DD00BF4837BD4633
:10039C00B0BD00BF882700085000002000000020DE
:1003AC0090B583B000AF0446084611461A46234662
:1003BC00FB710346BB710B467B7113463B71BB79DA
:1003CC0004211846FFF72CFFFB7903211846FFF791
:1003DC0027FF3B7902211846FFF722FF7B79012189
:1003EC001846FFF71DFF00BF0C37BD4690BD80B40B
:1003FC0000AF00BFBD4680BC7047000080B500AFA9
:10040C00012202210D4800F0A0FFFFF7F0FF0122AE
:10041C0001210A4800F099FFFFF7E9FF00220221B1
:10042C00064800F092FFFFF7E2FF0022012103488B
:10043C0000F08BFFFFF7DBFF00BF80BD0008014021
:10044C0080B500AF002202210A4800F07EFFFFF7C2
:10045C00CEFF01220121074800F077FFFFF7C7FF0D
:10046C0001220221034800F070FFFFF7C0FF00BF1C
:10047C0080BD00BF0008014080B584B000AF0346CA
:10048C00FB710023BB7301220221284800F05DFFA1
:10049C000023FB7323E0BB7B5B00BB7301220121B8
:1004AC00224800F052FF0421204800F037FF034699
:1004BC00002BF3D0FFF79BFF08211C4800F02EFF08
:1004CC000346002B03D0BB7B43F00103BB7300221C
:1004DC000121164800F039FFFB7B0133FB73FB7BDA
:1004EC00072BD8D9FB79002B05D0002202210F480D
:1004FC0000F02BFF04E0012202210C4800F025FF44
:10050C0001220121094800F020FFFFF770FF0022B3
:10051C000121064800F019FF01220221034800F0D6
:10052C0014FFBB7B18461037BD4680BD0008014048
:10053C0080B584B000AF0346FB710823FB731EE04B
:10054C0097F90730002B05DA012202211F4800F031
:10055C00FCFE04E0002202211C4800F0F6FE012201
:10056C0001211A4800F0F1FEFB795B00FB710022BF
:10057C000121164800F0E9FEFB7B013BFB73FB7B82
:10058C00002BDDD101220221104800F0DEFE0122F9
:10059C0001210E4800F0D9FEFFF729FF08210B4876
:1005AC0000F0BCFE0346002B14BF01230023DAB27B
:1005BC00074B1A7000220121044800F0C6FE044BC0
:1005CC001B7818461037BD4680BD00BF000801409F
:1005DC00BC01002080B500AFFFF710FFD020FFF763
:1005EC00A7FF0720FFF7A4FF0020FFF7A1FFFFF7ED
:1005FC0027FF00BF80BD80B582B000AF7860FFF7E9
:10060C00FDFED020FFF794FF0020FFF791FF7B68E1
:10061C001B781846FFF78CFF7B685B781846FFF752
:10062C0087FF7B689B781846FFF782FF7B68DB7837
:10063C001846FFF77DFF7B681B791846FFF778FF9C
:10064C007B685B791846FFF773FF7B689B791846CC
:10065C00FFF76EFFFFF7F4FE00BF0837BD4680BD05
:10066C0080B582B000AF7860FFF7C8FED020FFF7EE
:10067C005FFF0020FFF75CFFFFF7C0FED120FFF704
:10068C0057FF0120FFF7F8FE03461A467B681A70E5
:10069C000120FFF7F1FE03461A467B685A700120D1
:1006AC00FFF7EAFE03461A467B689A700120FFF7B3
:1006BC00E3FE03461A467B68DA700120FFF7DCFE86
:1006CC0003461A467B681A710120FFF7D5FE0346D4
:1006DC001A467B685A710020FFF7CEFE03461A4675
:1006EC007B689A71FFF7ACFE00BF0837BD4680BD32
:1006FC0080B500AF00F024FB00F05EF800F09EF92E
:10070C0000F0A0F800F070F900F0D2F800F01EF93B
:10071C00FFF760FF234B17229A70224B30225A703E
:10072C00204B00221A701F4B24221A711D4B0922D8
:10073C005A711C4B23229A711A4B0622DA701948F3
:10074C00FFF759FF0420FFF73FFD1648FFF788FF1E
:10075C00144B9B7803F00F03DAB2134B1A70114B46
:10076C009B781B09DAB2114B1A700E4B5B7803F0B5
:10077C000F03DAB20E4B1A700A4B5B781B09DAB214
:10078C000C4B1A70084B1878084B1978084B1A78D0
:10079C00084B1B78FFF704FE4FF47A7000F032FB25
:1007AC00D3E700BF840000208000002081000020DF
:1007BC00830000208200002080B590B000AF07F1CC
:1007CC00180328220021184601F0A0FF3B1D00222F
:1007DC001A605A609A60DA601A610123BB614FF4A7
:1007EC008033FB6100233B620123BB6202237B63EA
:1007FC004FF48033BB634FF4E013FB6307F1180332
:10080C00184600F0BBFD0346002B01D000F060F948
:10081C000F237B600223BB600023FB604FF48063DB
:10082C003B6100237B613B1D0221184601F028F837
:10083C000346002B01D000F04BF900BF4037BD46FA
:10084C0080BD000080B500AF174B184A1A60164BDC
:10085C004FF482725A60144B00229A60124B0022A1
:10086C00DA60114B00221A610F4B00225A610E4BB9
:10087C004FF400729A610C4B1822DA610A4B002279
:10088C001A62094B00225A62074B00229A62064BED
:10089C000A22DA62044801F081F90346002B01D0E8
:1008AC0000F016F900BF80BD8C0000200030014024
:1008BC0080B586B000AF07F1080300221A605A60B9
:1008CC009A60DA603B4600221A605A601D4B1E4A41
:1008DC001A601C4B00225A601A4B00229A60194B6A
:1008EC004FF6FF72DA60174B00221A61154B00228B
:1008FC009A61144801F0C0FB0346002B01D000F0B4
:10090C00E7F84FF48053BB6007F1080319460D4814
:10091C0001F001FC0346002B01D000F0D9F80023B4
:10092C003B6000237B603B461946064801F0B2FD54
:10093C000346002B01D000F0CBF800BF1837BD46A2
:10094C0080BD00BFE40000200004004080B586B0EC
:10095C0000AF07F1080300221A605A609A60DA604F
:10096C003B4600221A605A601D4B1E4A1A601C4BF3
:10097C004FF400625A601A4B00229A60184B48F6EA
:10098C005412DA60164B00221A61154B80229A61C0
:10099C00134801F071FB0346002B01D000F098F8CE
:1009AC004FF48053BB6007F1080319460C4801F063
:1009BC00B2FB0346002B01D000F08AF800233B6009
:1009CC0000237B603B461946054801F063FD034656
:1009DC00002B01D000F07CF800BF1837BD4680BD5D
:1009EC002C0100200008004080B500AF114B124ACA
:1009FC001A60104B4FF416525A600E4B00229A603C
:100A0C000C4B0022DA600B4B00221A61094B0C22B2
:100A1C005A61084B00229A61064B0022DA610548A4
:100A2C0001F096FD0346002B01D000F051F800BFF9
:100A3C0080BD00BF740100200048004080B588B024
:100A4C0000AF07F1100300221A605A609A60DA6056
:100A5C001D4B9B691C4A43F0200393611A4B9B6905
:100A6C0003F02003FB60FB68174B9B69164A43F0AD
:100A7C0004039361144B9B6903F00403BB60BB68D4
:100A8C00114B9B69104A43F0080393610E4B9B6911
:100A9C0003F008037B607B68002213210B4800F0F5
:100AAC0054FC13233B6101237B610023BB610223B4
:100ABC00FB6107F110031946044800F0ABFA00BFC4
:100ACC002037BD4680BD00BF001002400008014029
:100ADC0080B400AF72B600BFFEE7000080B483B0F4
:100AEC0000AF0E4B9B690D4A43F0010393610B4B16
:100AFC009B6903F001037B607B68084BDB69074A49
:100B0C0043F08053D361054BDB6903F080533B60AA
:100B1C003B6800BF0C37BD4680BC704700100240DC
:100B2C0080B588B000AF786007F1100300221A601E
:100B3C005A609A60DA607B681B68154A934223D12D
:100B4C00144B9B69134A43F480539361114B9B697B
:100B5C0003F48053FB60FB680E4B9B690D4A43F01A
:100B6C00040393610B4B9B6903F00403BB60BB68EC
:100B7C00A0233B6102237B610323FB6107F110037C
:100B8C001946054800F046FA00BF2037BD4680BD27
:100B9C0000300140001002400008014080B485B0D4
:100BAC0000AF78607B681B68124A93420CD1124BE1
:100BBC00DB69114A43F00203D3610F4BDB6903F08D
:100BCC000203FB60FB6810E07B681B680B4A9342D6
:100BDC000BD1094BDB69084A43F00403D361064B84
:100BEC00DB6903F00403BB60BB6800BF1437BD4670
:100BFC0080BC704700040040001002400008004018
:100C0C0080B588B000AF786007F1100300221A603D
:100C1C005A609A60DA607B681B681C4A934231D137
:100C2C001B4BDB691A4A43F48023D361184BDB69F5
:100C3C0003F48023FB60FB68154B9B69144A43F05B
:100C4C0008039361124B9B6903F00803BB60BB68FC
:100C5C004FF480633B6102237B610323FB6107F14B
:100C6C00100319460B4800F0D5F94FF400633B61B3
:100C7C0000237B610023BB6107F110031946054873
:100C8C0000F0C8F900BF2037BD4680BD00480040C9
:100C9C0000100240000C014080B400AFFEE780B4AD
:100CAC0000AFFEE780B400AFFEE780B400AFFEE714
:100CBC0080B400AFFEE780B400AF00BFBD4680BC7F
:100CCC00704780B400AF00BFBD4680BC704780B495
:100CDC0000AF00BFBD4680BC704780B500AF00F0D0
:100CEC0075F800BF80BD80B400AF00BFBD4680BCAE
:100CFC0070470000FFF7F7FF0B480C490C4A002324
:100D0C0002E0D458C4500433C4188C42F9D3094AB5
:100D1C00094C002301E013600432A242FBD301F022
:100D2C00FDFCFFF7E5FC704700000020640000208C
:100D3C00E427000864000020C4010020FEE7000046
:100D4C0080B500AF084B1B68074A43F010031360D3
:100D5C00032000F02BF90F2000F008F8FFF7BEFE7F
:100D6C000023184680BD00BF0020024080B582B031
:100D7C0000AF7860124B1A68124B1B7819464FF46F
:100D8C007A73B3FBF1F3B2FBF3F3184600F035F9C9
:100D9C000346002B01D001230EE07B680F2B0AD8F1
:100DAC00002279684FF0FF3000F00BF9064A7B689F
:100DBC001360002300E0012318460837BD4680BDB0
:100DCC0058000020600000205C00002080B400AFC0
:100DDC00054B1B781A46054B1B681344034A1360DA
:100DEC0000BFBD4680BC704760000020C0010020E1
:100DFC0080B400AF024B1B681846BD4680BC7047E0
:100E0C00C001002080B584B000AF7860FFF7F0FF20
:100E1C00B8607B68FB60FB68B3F1FF3F05D00A4B01
:100E2C001B781A46FB681344FB6000BFFFF7E0FF1A
:100E3C000246BB68D31AFA689A42F7D800BF00BFC3
:100E4C001037BD4680BD00BF6000002080B485B067
:100E5C0000AF78607B6803F00703FB600C4BDB682A
:100E6C00BB60BA684FF6FF031340BB60FB681A0205
:100E7C00BB68134343F0BF6343F40033BB60044AC5
:100E8C00BB68D36000BF1437BD4680BC704700BF41
:100E9C0000ED00E080B400AF044BDB681B0A03F0EC
:100EAC0007031846BD4680BC704700BF00ED00E04C
:100EBC0080B483B000AF03463960FB7197F90730FB
:100ECC00002B0ADB3B68DAB20C4997F907301201A8
:100EDC00D2B20B4483F800230AE03B68DAB208492B
:100EEC00FB7903F00F03043B1201D2B20B441A76C8
:100EFC0000BF0C37BD4680BC704700BF00E100E06E
:100F0C0000ED00E080B489B000AFF860B9607A60A1
:100F1C00FB6803F00703FB61FB69C3F10703042BB8
:100F2C0028BF0423BB61FB690433062B02D9FB6980
:100F3C00033B00E000237B614FF0FF32BB6902FAF8
:100F4C0003F3DA43BB681A407B699A404FF0FF31D8
:100F5C007B6901FA03F3D9437B680B4013431846B2
:100F6C002437BD4680BC704780B582B000AF786036
:100F7C007B68013BB3F1807F01D301230FE00A4A68
:100F8C007B68013B53600F214FF0FF30FFF790FF60
:100F9C00054B00229A60044B07221A600023184666
:100FAC000837BD4680BD00BF10E000E080B582B0C0
:100FBC0000AF78607868FFF749FF00BF0837BD467F
:100FCC0080BD80B586B000AF0346B9607A60FB7314
:100FDC0000237B61FFF75EFF78617A68B9687869F6
:100FEC00FFF790FF024697F90F3011461846FFF7AE
:100FFC005FFF00BF1837BD4680BD80B582B000AF23
:10100C0078607868FFF7B0FF034618460837BD468E
:10101C0080BD000080B48BB000AF786039600023D5
:10102C007B6200233B6269E101227B6A02FA03F3D3
:10103C00FB613B681B68FA691340BB61BA69FB69C9
:10104C009A4240F058813B685B689A4A93425ED062
:10105C00984A934275D8984A934258D0964A9342EC
:10106C006FD8964A934252D0944A934269D8944A84
:10107C0093424CD0924A934263D8924A934246D0C0
:10108C00904A93425DD8122B2AD8122B59D801A220
:10109C0052F823F01B110008F51000080711000886
:1010AC00491100084F1100084F1100084F1100089A
:1010BC004F1100084F1100084F1100084F11000884
:1010CC004F1100084F1100084F1100084F11000874
:1010DC004F1100084F110008FD10000811110008F5
:1010EC00794A934213D02CE03B68DB683B6229E0E1
:1010FC003B68DB6804333B6224E03B68DB68083305
:10110C003B621FE03B68DB680C333B621AE03B68D8
:10111C009B68002B02D104233B6213E03B689B6865
:10112C00012B05D108233B627B68FA691A6109E03F
:10113C0008233B627B68FA695A6103E000233B6237
:10114C0000E000BFBB69FF2B01D87B6801E07B6826
:10115C0004337B61BB69FF2B02D87B6A9B0002E0E6
:10116C007B6A083B9B003B617B691A680F213B69DA
:10117C0001FA03F3DB431A40396A3B6901FA03F3C2
:10118C001A437B691A603B685B6803F08053002B41
:10119C0000F0B1804D4B9B694C4A43F001039361C5
:1011AC004A4B9B6903F00103BB60BB68484A7B6AEE
:1011BC009B08023352F82330FB607B6A03F0030375
:1011CC009B000F2202FA03F3DB43FA681340FB6027
:1011DC007B68404A934213D07B683F4A93420DD0C0
:1011EC007B683E4A934207D07B683D4A934201D1CB
:1011FC00032306E0042304E0022302E0012300E0C1
:10120C0000237A6A02F0030292009340FA681343B7
:10121C00FB602F497B6A9B080233FA6841F8232054
:10122C003B685B6803F48013002B06D02D4B9A6847
:10123C002C49BB6913438B6006E02A4B9A68BB6947
:10124C00DB43284913408B603B685B6803F4001355
:10125C00002B06D0234BDA682249BB691343CB60C1
:10126C0006E0204BDA68BB69DB431E491340CB60B8
:10127C003B685B6803F40033002B06D0194B5A68AB
:10128C001849BB6913434B6006E0164B5A68BB699F
:10129C00DB43144913404B603B685B6803F48033B9
:1012AC00002B21D00F4B1A680E49BB6913430B60FE
:1012BC0021E000BF000032100000311000002210AD
:1012CC00000021100000121000001110001002404C
:1012DC000000014000080140000C014000100140DA
:1012EC0000140140000401400B4B1A68BB69DB433E
:1012FC00094913400B607B6A01337B623B681A68B7
:10130C007B6A22FA03F3002B7FF48EAE00BF00BF82
:10131C002C37BD4680BC70470004014080B485B0BA
:10132C0000AF78600B467B807B689A687B881340A3
:10133C00002B02D00123FB7301E00023FB73FB7B2A
:10134C0018461437BD4680BC704780B483B000AFDC
:10135C0078600B467B8013467B707B78002B03D028
:10136C007A887B681A6103E07B881A047B681A61AF
:10137C0000BF0C37BD4680BC7047000080B586B0FE
:10138C0000AF78607B68002B01D1012372E27B688F
:10139C001B6803F00103002B00F08780924B5B6805
:1013AC0003F00C03042B0CD08F4B5B6803F00C0385
:1013BC00082B12D18C4B5B6803F48033B3F5803F60
:1013CC000BD1894B1B6803F40033002B6CD07B686A
:1013DC005B68002B68D101234CE27B685B68B3F53A
:1013EC00803F06D1804B1B687F4A43F480331360E7
:1013FC002EE07B685B68002B0CD17B4B1B687A4A18
:10140C0023F480331360784B1B68774A23F48023D2
:10141C0013601DE07B685B68B3F5A02F0CD1724B99
:10142C001B68714A43F4802313606F4B1B686E4A30
:10143C0043F4803313600BE06B4B1B686A4A23F454
:10144C0080331360684B1B68674A23F48023136056
:10145C007B685B68002B13D0FFF7CAFC386108E08F
:10146C00FFF7C6FC02463B69D31A642B01D9032350
:10147C0000E25D4B1B6803F40033002BF0D014E04A
:10148C00FFF7B6FC386108E0FFF7B2FC02463B6997
:10149C00D31A642B01D90323ECE1534B1B6803F4DF
:1014AC000033002BF0D100E000BF7B681B6803F019
:1014BC000203002B63D04C4B5B6803F00C03002B36
:1014CC000BD0494B5B6803F00C03082B1CD1464B2B
:1014DC005B6803F48033002B16D1434B1B6803F07D
:1014EC000203002B05D07B681B69012B01D0012363
:1014FC00C0E13D4B1B6823F0F8027B685B69DB00A5
:10150C00394913430B603AE07B681B69002B20D0F0
:10151C00364B01221A60FFF76BFC386108E0FFF7CD
:10152C0067FC02463B69D31A022B01D90323A1E1C4
:10153C002D4B1B6803F00203002BF0D02A4B1B68C9
:10154C0023F0F8027B685B69DB00274913430B60CF
:10155C0015E0264B00221A60FFF74AFC386108E0C0
:10156C00FFF746FC02463B69D31A022B01D9032331
:10157C0080E11D4B1B6803F00203002BF0D17B684C
:10158C001B6803F00803002B3AD07B689B69002B87
:10159C0019D0174B01221A60FFF72AFC386108E0BA
:1015AC00FFF726FC02463B69D31A022B01D9032311
:1015BC0060E10D4B5B6A03F00203002BF0D00120BD
:1015CC0000F0CEFA1CE00A4B00221A60FFF710FC68
:1015DC0038610FE0FFF70CFC02463B69D31A022B73
:1015EC0008D9032346E100BF00100240000042422C
:1015FC0080044242924B5B6A03F00203002BE9D158
:10160C007B681B6803F00403002B00F0A68000230A
:10161C00FB758B4BDB6903F08053002B0DD1884B92
:10162C00DB69874A43F08053D361854BDB6903F058
:10163C008053BB60BB680123FB75824B1B6803F4B2
:10164C008073002B18D17F4B1B687E4A43F4807348
:10165C001360FFF7CDFB386108E0FFF7C9FB0246CA
:10166C003B69D31A642B01D9032303E1754B1B6827
:10167C0003F48073002BF0D07B68DB68012B06D160
:10168C006F4B1B6A6E4A43F0010313622DE07B68BB
:10169C00DB68002B0CD16A4B1B6A694A23F00103EF
:1016AC001362674B1B6A664A23F0040313621CE047
:1016BC007B68DB68052B0CD1614B1B6A604A43F0DD
:1016CC00040313625E4B1B6A5D4A43F00103136211
:1016DC000BE05B4B1B6A5A4A23F001031362584B15
:1016EC001B6A574A23F0040313627B68DB68002BE8
:1016FC0015D0FFF77DFB38610AE0FFF779FB024656
:10170C003B69D31A41F28832934201D90323B1E0E9
:10171C004B4B1B6A03F00203002BEED014E0FFF7D7
:10172C0067FB38610AE0FFF763FB02463B69D31A9B
:10173C0041F28832934201D903239BE0404B1B6A50
:10174C0003F00203002BEED1FB7D012B05D13C4BAA
:10175C00DB693B4A23F08053D3617B68DB69002B48
:10176C0000F08780364B5B6803F00C03082B61D0CC
:10177C007B68DB69022B46D1334B00221A60FFF7E2
:10178C0037FB386108E0FFF733FB02463B69D31A9D
:10179C00022B01D903236DE0294B1B6803F0007366
:1017AC00002BF0D17B681B6AB3F5803F08D1244B2A
:1017BC005B6823F400327B689B68214913434B60C0
:1017CC001F4B5B6823F474127B68196A7B685B6A35
:1017DC000B431B4913434B601B4B01221A60FFF751
:1017EC0007FB386108E0FFF703FB02463B69D31A9D
:1017FC00022B01D903233DE0114B1B6803F000734E
:10180C00002BF0D035E0104B00221A60FFF7F0FAF5
:10181C00386108E0FFF7ECFA02463B69D31A022B59
:10182C0001D9032326E0064B1B6803F00073002B41
:10183C00F0D11EE07B68DB69012B07D1012319E095
:10184C000010024000700040600042420B4B5B688D
:10185C00FB60FB6803F480327B681B6A9A4206D1FA
:10186C00FB6803F470127B685B6A9A4201D0012317
:10187C0000E0002318461837BD4680BD001002401A
:10188C0080B584B000AF786039607B68002B01D1E3
:10189C000123D0E06A4B1B6803F007033A689A42B5
:1018AC0010D9674B1B6823F0070265493B6813434B
:1018BC000B60634B1B6803F007033A689A4201D034
:1018CC000123B8E07B681B6803F00203002B20D0D7
:1018DC007B681B6803F00403002B05D0594B5B6835
:1018EC00584A43F4E06353607B681B6803F00803B9
:1018FC00002B05D0534B5B68524A43F46053536042
:10190C00504B5B6823F0F0027B689B684D49134396
:10191C004B607B681B6803F00103002B40D07B6895
:10192C005B68012B07D1474B1B6803F40033002B7A
:10193C0015D101237FE07B685B68022B07D1414BFB
:10194C001B6803F00073002B09D1012373E03D4B9E
:10195C001B6803F00203002B01D101236BE0394B10
:10196C005B6823F003027B685B68364913434B606A
:10197C00FFF73EFAF8600AE0FFF73AFA0246FB6816
:10198C00D31A41F28832934201D9032353E02D4BF1
:10199C005B6803F00C027B685B689B009A42EBD19E
:1019AC00274B1B6803F007033A689A4210D2244B6A
:1019BC001B6823F0070222493B6813430B60204B42
:1019CC001B6803F007033A689A4201D0012332E006
:1019DC007B681B6803F00403002B08D0194B5B6871
:1019EC0023F4E0627B68DB68164913434B607B6829
:1019FC001B6803F00803002B09D0124B5B6823F41F
:101A0C0060527B681B69DB000E4913434B6000F08E
:101A1C0021F802460B4B5B681B0903F00F030A49C4
:101A2C00CB5C22FA03F3094A1360094B1B68184676
:101A3C00FFF79CF9002318461037BD4680BD00BF48
:101A4C000020024000100240B0270008580000207F
:101A5C005C00002080B487B000AF0023FB60002343
:101A6C00BB6000237B6100237B6000233B611E4B2A
:101A7C005B68FB60FB6803F00C03042B02D0082BA3
:101A8C0003D027E0194B3B6127E0FB689B0C03F06C
:101A9C000F03174AD35C7B60FB6803F48033002B85
:101AAC0010D0114B5B685B0C03F00103114AD35C43
:101ABC00BB607B680D4A03FB02F2BB68B2FBF3F31D
:101ACC007B6104E07B680C4A02FB03F37B617B695E
:101ADC003B6102E0054B3B6100BF3B6918461C377C
:101AEC00BD4680BC704700BF0010024000127A0057
:101AFC00C8270008D827000800093D0080B400AFB3
:101B0C00024B1B681846BD4680BC7047580000202D
:101B1C0080B500AFFFF7F2FF0246054B5B681B0A6E
:101B2C0003F007030349CB5C22FA03F3184680BD8C
:101B3C0000100240C027000880B500AFFFF7DEFFA1
:101B4C000246054B5B68DB0A03F007030349CB5CD9
:101B5C0022FA03F3184680BD00100240C02700088B
:101B6C0080B485B000AF78600A4B1B680A4AA2FBB0
:101B7C0003235B0A7A6802FB03F3FB6000BFFB687C
:101B8C005A1EFA60002BF9D100BF00BF1437BD46B6
:101B9C0080BC704758000020D34D621080B582B0D5
:101BAC0000AF78607B68002B01D1012376E07B6865
:101BBC005B6A002B08D17B685B68B3F5827F09D028
:101BCC007B680022DA6105E07B6800221A617B6881
:101BDC0000225A617B6800229A627B6893F851302C
:101BEC00DBB2002B06D17B68002283F8502078688A
:101BFC00FEF796FF7B68022283F851207B681B68F6
:101C0C001A687B681B6822F040021A607B685B686C
:101C1C0003F482727B689B6803F404431A437B6869
:101C2C00DB6803F400631A437B681B6903F002034F
:101C3C001A437B685B6903F001031A437B689B6959
:101C4C0003F400731A437B68DB6903F038031A430F
:101C5C007B681B6A03F0800342EA03017B689B6A82
:101C6C0003F400527B681B680A431A607B689B690B
:101C7C001A0C7B681B6802F004025A607B681B68B4
:101C8C00DA697B681B6822F40062DA617B680022E7
:101C9C005A657B68012283F85120002318460837C7
:101CAC00BD4680BD80B588B000AFF860B9603B60C0
:101CBC001346FB800023FB77FB6893F85030012B15
:101CCC0001D102232DE1FB68012283F85020FFF79C
:101CDC008FF8B861FB88FB82FB6893F85130DBB25C
:101CEC00012B02D00223FB7716E1BB68002B02D03C
:101CFC00FB88002B02D10123FB770DE1FB6803224B
:101D0C0083F85120FB6800225A65FB68BA681A6395
:101D1C00FB68FA889A86FB68FA88DA86FB680022E8
:101D2C009A63FB6800229A87FB680022DA87FB68BB
:101D3C0000225A64FB6800221A64FB689B68B3F5A6
:101D4C00004F0FD1FB681B681A68FB681B6822F0F8
:101D5C0040021A60FB681B681A68FB681B6842F437
:101D6C0080421A60FB681B681B6803F04003402B21
:101D7C0007D0FB681B681A68FB681B6842F04002BE
:101D8C001A60FB68DB68B3F5006F4FD1FB685B68CA
:101D9C00002B02D0FB8A012B42D1FB681B6B1A88EB
:101DAC00FB681B68DA60FB681B6B9A1CFB681A6388
:101DBC00FB68DB8E9BB2013B9AB2FB68DA862FE0A4
:101DCC00FB681B689B6803F00203022B12D1FB68B3
:101DDC001B6B1A88FB681B68DA60FB681B6B9A1C10
:101DEC00FB681A63FB68DB8E9BB2013B9AB2FB6803
:101DFC00DA8615E0FEF7FCFF0246BB69D31A3A6897
:101E0C009A4203D83B68B3F1FF3F02D13B68002BE9
:101E1C0006D10323FB77FB68012283F851207BE07A
:101E2C00FB68DB8E9BB2002BCAD150E0FB685B6871
:101E3C00002B02D0FB8A012B44D1FB681A6BFB6888
:101E4C001B680C3312781A70FB681B6B5A1CFB68EE
:101E5C001A63FB68DB8E9BB2013B9AB2FB68DA8695
:101E6C0030E0FB681B689B6803F00203022B13D164
:101E7C00FB681A6BFB681B680C3312781A70FB68D2
:101E8C001B6B5A1CFB681A63FB68DB8E9BB2013B15
:101E9C009AB2FB68DA8615E0FEF7AAFF0246BB6928
:101EAC00D31A3A689A4203D83B68B3F1FF3F02D188
:101EBC003B68002B06D10323FB77FB68012283F8D8
:101ECC00512029E0FB68DB8E9BB2002BC9D1BA698B
:101EDC003968F86800F0B2F80346002B02D0FB68B2
:101EEC0020225A65FB689B68002B0AD100233B61BA
:101EFC00FB681B68DB683B61FB681B689B683B618C
:101F0C003B69FB685B6D002B02D00123FB7703E080
:101F1C00FB68012283F85120FB68002283F85020D3
:101F2C00FB7F18462037BD4680BD000080B588B0C9
:101F3C0000AFF860B9603B601346FB71FEF758FFC9
:101F4C000246BB6A9B1A3A681344FB61FEF750FFCA
:101F5C00B861394B1B685B011B0DFA6902FB03F37B
:101F6C007B6154E03B68B3F1FF3F50D0FEF740FF7C
:101F7C000246BB69D31AFA699A4202D9FB69002B53
:101F8C003DD1FB681B685A68FB681B6822F0E002B5
:101F9C005A60FB685B68B3F5827F11D1FB689B6864
:101FAC00B3F5004F04D0FB689B68B3F5806F07D185
:101FBC00FB681B681A68FB681B6822F040021A60F9
:101FCC00FB689B6AB3F5005F0FD1FB681B681A684E
:101FDC00FB681B6822F400521A60FB681B681A68C5
:101FEC00FB681B6842F400521A60FB68012283F8FC
:101FFC005120FB68002283F85020032317E07B69F3
:10200C00002B01D10023FB617B69013B7B61FB68E9
:10201C001B689A68BB681340BA689A420CBF0123CC
:10202C000023DBB21A46FB799A429BD10023184657
:10203C002037BD4680BD00BF5800002080B586B05B
:10204C0002AFF860B9607A607B680093BB680022CD
:10205C008021F868FFF76AFF0346002B07D0FB6866
:10206C005B6D43F02002FB685A65032300E00023FC
:10207C0018461037BD4680BD80B582B000AF786081
:10208C007B68002B01D1012341E07B6893F83D3044
:10209C00DBB2002B06D17B68002283F83C207868E9
:1020AC00FEF77CFD7B68022283F83D207B681A6872
:1020BC007B6804331946104600F0F4F87B68012263
:1020CC0083F846207B68012283F83E207B6801223E
:1020DC0083F83F207B68012283F840207B68012233
:1020EC0083F841207B68012283F842207B6801221F
:1020FC0083F843207B68012283F844207B6801220B
:10210C0083F845207B68012283F83D200023184684
:10211C000837BD4680BD80B584B000AF78603960AB
:10212C000023FB737B6893F83C30012B01D1022315
:10213C00B4E07B68012283F83C207B68022283F8A0
:10214C003D207B681B689B68BB60BB6823F07703F2
:10215C00BB60BB6823F47F43BB607B681B68BA68B9
:10216C009A603B681B68B3F5005F3ED0B3F5005F27
:10217C0000F28780B3F5805F00F08680B3F5805F56
:10218C007FD8702B1AD0702B7BD8602B50D0602B43
:10219C0077D8502B3CD0502B73D8402B58D0402B99
:1021AC006FD8302B64D0302B6BD8202B60D0202BE9
:1021BC0067D8002B5CD0102B5AD062E07B68186873
:1021CC003B6899683B685A683B68DB6800F043F9E8
:1021DC007B681B689B68BB60BB6843F07703BB6084
:1021EC007B681B68BA689A604FE07B6818683B682C
:1021FC0099683B685A683B68DB6800F02CF97B688F
:10220C001B689A687B681B6842F480429A603CE0C9
:10221C007B6818683B6859683B68DB681A4600F0B5
:10222C00A3F87B681B685021184600F0FAF82CE0E4
:10223C007B6818683B6859683B68DB681A4600F095
:10224C00C1F87B681B686021184600F0EAF81CE0B6
:10225C007B6818683B6859683B68DB681A4600F075
:10226C0083F87B681B684021184600F0DAF80CE014
:10227C007B681A683B681B681946104600F0D1F859
:10228C0003E00123FB7300E000BF7B68012283F8AD
:10229C003D207B68002283F83C20FB7B18461037DE
:1022AC00BD4680BD80B485B000AF786039607B6876
:1022BC001B68FB607B68294A93420BD07B68B3F1A7
:1022CC00804F07D07B68264A934203D07B68254A0F
:1022DC00934208D1FB6823F07003FB603B685B689A
:1022EC00FA681343FB607B681C4A93420BD07B68F3
:1022FC00B3F1804F07D07B68194A934203D07B68B7
:10230C00184A934208D1FB6823F44073FB603B6886
:10231C00DB68FA681343FB60FB6823F080023B68C0
:10232C005B691343FB607B68FA681A603B689A68C8
:10233C007B68DA623B681A687B689A627B68074A3A
:10234C00934203D13B681A697B681A637B6801224C
:10235C005A6100BF1437BD4680BC7047002C014049
:10236C00000400400008004080B487B000AFF86063
:10237C00B9607A60FB681B6A7B61FB681B6A23F09F
:10238C000102FB681A62FB689B693B613B6923F0A5
:10239C00F0033B617B681B013A6913433B617B692A
:1023AC0023F00A037B617A69BB6813437B61FB688A
:1023BC003A699A61FB687A691A6200BF1C37BD469C
:1023CC0080BC704780B487B000AFF860B9607A60A9
:1023DC00FB681B6A7B61FB681B6A23F01002FB68BD
:1023EC001A62FB689B693B613B6923F470433B6158
:1023FC007B681B033A6913433B617B6923F0A003A1
:10240C007B61BB681B017A6913437B61FB683A698A
:10241C009A61FB687A691A6200BF1C37BD4680BCA2
:10242C00704780B485B000AF786039607B689B687A
:10243C00FB60FB6823F07003FB603A68FB68134396
:10244C0043F00703FB607B68FA689A6000BF14379F
:10245C00BD4680BC704780B487B000AFF860B960EF
:10246C007A603B60FB689B687B617B6923F47F43EC
:10247C007B613B681A027B681A43BB6813437A6919
:10248C0013437B61FB687A699A6000BF1C37BD46B9
:10249C0080BC704780B485B000AF786039607B68D1
:1024AC0093F83C30012B01D1022346E07B680122DA
:1024BC0083F83C207B68022283F83D207B681B68F4
:1024CC005B68FB607B681B689B68BB60FB6823F0E8
:1024DC007003FB603B681B68FA681343FB607B6806
:1024EC001B68FA685A607B681B68164A93420ED0C8
:1024FC007B681B68B3F1804F09D07B681B68124A5C
:10250C00934204D07B681B68104A93420CD1BB6881
:10251C0023F08003BB603B685B68BA681343BB6005
:10252C007B681B68BA689A607B68012283F83D203F
:10253C007B68002283F83C20002318461437BD46E4
:10254C0080BC7047002C0140000400400008004093
:10255C0080B582B000AF78607B68002B01D101237D
:10256C0042E07B6893F84130DBB2002B06D17B68EC
:10257C00002283F840207868FEF742FB7B68242217
:10258C0083F841207B681B68DA687B681B6822F43F
:10259C000052DA60786800F02BF87B681B681A69C7
:1025AC007B681B6822F490421A617B681B685A692D
:1025BC007B681B6822F02A025A617B681B68DA6808
:1025CC007B681B6842F40052DA607B6800225A6414
:1025DC007B68202283F841207B68202283F84220EC
:1025EC007B6800225A63002318460837BD4680BD1D
:1025FC0080B584B000AF78607B681B681B6923F4DE
:10260C0040517B68DA687B681B680A431A617B68F7
:10261C009A687B681B691A437B685B691343BB60D0
:10262C007B681B68DB6823F4B05323F00C037A68D7
:10263C001268B9680B43D3607B681B685B6923F431
:10264C0040717B689A697B681B680A435A617B6896
:10265C001B682C4A934203D1FFF76EFAF86002E034
:10266C00FFF756FAF860FA6813469B0013449A0079
:10267C001A447B685B689B00B2FBF3F3224AA2FB13
:10268C0003235B091901FA6813469B0013449A0053
:10269C001A447B685B689B00B2FBF3F21A4BA3FBFA
:1026AC0002035B09642000FB03F3D31A1B013233D2
:1026BC00154AA2FB03235B0903F0F0031944FA68E3
:1026CC0013469B0013449A001A447B685B689B007A
:1026DC00B2FBF3F20C4BA3FB02035B09642000FB7F
:1026EC0003F3D31A1B013233074AA2FB03235B0902
:1026FC0003F00F027B681B680A449A6000BF103716
:10270C00BD4680BD003801401F85EB510346024495
:10271C00934200D1704703F8011BF9E770B500260E
:10272C000C4D0D4C641BA410A64209D100F01AF8F4
:10273C0000260A4D0A4C641BA410A64205D170BD9C
:10274C0055F8043B98470136EEE755F8043B98479B
:10275C000136F2E7DC270008DC270008DC2700083C
:10276C00E0270008F8B500BFF8BC08BC9E467047CF
:0C277C00F8B500BFF8BC08BC9E467047D2
:102788000000002008000020100000201800002091
:102798002000002028000020300000203800002001
:1027A8004000002048000020000000000000000059
:1027B80001020304060708090000000001020304DF
:1027C80002030405060708090A0B0C0D0E0F10106A
:0427D80001020000FA
:0427DC0031010008BF
:0427E0000D010008DF
:1027E400000E11111111110E00040C140404041F25
:1027F400000E11010204081F000E11010601110E42
:102804000002060A121F0202001F10101E01110E00
:10281400000E11101E11110E001F010204040808FD
:10282400000E11110E11110E000E11110F01110ED7
:1028340000020200000202000024F4001000000064
:04284400010000008F
:0400000508000D01E1
:00000001FF
